{
  "contractName": "Advertisement",
  "abi": [
    {
      "constant": true,
      "inputs": [
        {
          "name": "",
          "type": "uint256"
        }
      ],
      "name": "ads",
      "outputs": [
        {
          "name": "adOwner",
          "type": "address"
        },
        {
          "name": "link",
          "type": "string"
        },
        {
          "name": "linkName",
          "type": "string"
        }
      ],
      "payable": false,
      "stateMutability": "view",
      "type": "function"
    },
    {
      "inputs": [
        {
          "name": "_link",
          "type": "string"
        },
        {
          "name": "_linkName",
          "type": "string"
        }
      ],
      "payable": false,
      "stateMutability": "nonpayable",
      "type": "constructor"
    },
    {
      "constant": false,
      "inputs": [
        {
          "name": "_link",
          "type": "string"
        },
        {
          "name": "_linkName",
          "type": "string"
        }
      ],
      "name": "changeAd",
      "outputs": [],
      "payable": true,
      "stateMutability": "payable",
      "type": "function"
    },
    {
      "constant": true,
      "inputs": [],
      "name": "getOwner",
      "outputs": [
        {
          "name": "",
          "type": "address"
        }
      ],
      "payable": false,
      "stateMutability": "view",
      "type": "function"
    },
    {
      "constant": true,
      "inputs": [],
      "name": "getCost",
      "outputs": [
        {
          "name": "",
          "type": "uint256"
        }
      ],
      "payable": false,
      "stateMutability": "view",
      "type": "function"
    },
    {
      "constant": true,
      "inputs": [],
      "name": "getAd",
      "outputs": [
        {
          "name": "",
          "type": "address"
        },
        {
          "name": "",
          "type": "string"
        },
        {
          "name": "",
          "type": "string"
        }
      ],
      "payable": false,
      "stateMutability": "view",
      "type": "function"
    },
    {
      "constant": true,
      "inputs": [],
      "name": "getBalanceOfContract",
      "outputs": [
        {
          "name": "",
          "type": "uint256"
        }
      ],
      "payable": false,
      "stateMutability": "view",
      "type": "function"
    },
    {
      "constant": true,
      "inputs": [],
      "name": "getAdCount",
      "outputs": [
        {
          "name": "",
          "type": "uint256"
        }
      ],
      "payable": false,
      "stateMutability": "view",
      "type": "function"
    },
    {
      "constant": false,
      "inputs": [
        {
          "name": "amount",
          "type": "uint256"
        }
      ],
      "name": "withdraw",
      "outputs": [],
      "payable": false,
      "stateMutability": "nonpayable",
      "type": "function"
    }
  ],
  "bytecode": "0x6080604052600060025560016003553480156200001b57600080fd5b5060405162000f9038038062000f90833981018060405260408110156200004157600080fd5b8101908080516401000000008111156200005a57600080fd5b828101905060208101848111156200007157600080fd5b81518560018202830111640100000000821117156200008f57600080fd5b50509291906020018051640100000000811115620000ac57600080fd5b82810190506020810184811115620000c357600080fd5b8151856001820283011164010000000082111715620000e157600080fd5b505092919050505033600160006101000a81548173ffffffffffffffffffffffffffffffffffffffff021916908373ffffffffffffffffffffffffffffffffffffffff1602179055506060604051908101604052803373ffffffffffffffffffffffffffffffffffffffff16815260200183815260200182815250600080600354815260200190815260200160002060008201518160000160006101000a81548173ffffffffffffffffffffffffffffffffffffffff021916908373ffffffffffffffffffffffffffffffffffffffff1602179055506020820151816001019080519060200190620001d592919062000200565b506040820151816002019080519060200190620001f492919062000200565b509050505050620002af565b828054600181600116156101000203166002900490600052602060002090601f016020900481019282601f106200024357805160ff191683800117855562000274565b8280016001018555821562000274579182015b828111156200027357825182559160200191906001019062000256565b5b50905062000283919062000287565b5090565b620002ac91905b80821115620002a85760008160009055506001016200028e565b5090565b90565b610cd180620002bf6000396000f3fe608060405260043610610088576000357c010000000000000000000000000000000000000000000000000000000090048063017270221461008d57806311a7a4c0146101df57806322968885146103325780632e1a7d4d1461035d578063800a7e4514610398578063893d20e8146103c3578063bd3e19d41461041a578063da4700ed14610445575b600080fd5b6101dd600480360360408110156100a357600080fd5b81019080803590602001906401000000008111156100c057600080fd5b8201836020820111156100d257600080fd5b803590602001918460018302840111640100000000831117156100f457600080fd5b91908080601f016020809104026020016040519081016040528093929190818152602001838380828437600081840152601f19601f8201169050808301925050505050505091929192908035906020019064010000000081111561015757600080fd5b82018360208201111561016957600080fd5b8035906020019184600183028401116401000000008311171561018b57600080fd5b91908080601f016020809104026020016040519081016040528093929190818152602001838380828437600081840152601f19601f820116905080830192505050505050509192919290505050610574565b005b3480156101eb57600080fd5b506102186004803603602081101561020257600080fd5b810190808035906020019092919050505061066d565b604051808473ffffffffffffffffffffffffffffffffffffffff1673ffffffffffffffffffffffffffffffffffffffff1681526020018060200180602001838103835285818151815260200191508051906020019080838360005b8381101561028e578082015181840152602081019050610273565b50505050905090810190601f1680156102bb5780820380516001836020036101000a031916815260200191505b50838103825284818151815260200191508051906020019080838360005b838110156102f45780820151818401526020810190506102d9565b50505050905090810190601f1680156103215780820380516001836020036101000a031916815260200191505b509550505050505060405180910390f35b34801561033e57600080fd5b506103476107e7565b6040518082815260200191505060405180910390f35b34801561036957600080fd5b506103966004803603602081101561038057600080fd5b8101908080359060200190929190505050610862565b005b3480156103a457600080fd5b506103ad6109b8565b6040518082815260200191505060405180910390f35b3480156103cf57600080fd5b506103d8610a1e565b604051808273ffffffffffffffffffffffffffffffffffffffff1673ffffffffffffffffffffffffffffffffffffffff16815260200191505060405180910390f35b34801561042657600080fd5b5061042f610a48565b6040518082815260200191505060405180910390f35b34801561045157600080fd5b5061045a610a52565b604051808473ffffffffffffffffffffffffffffffffffffffff1673ffffffffffffffffffffffffffffffffffffffff1681526020018060200180602001838103835285818151815260200191508051906020019080838360005b838110156104d05780820151818401526020810190506104b5565b50505050905090810190601f1680156104fd5780820380516001836020036101000a031916815260200191505b50838103825284818151815260200191508051906020019080838360005b8381101561053657808201518184015260208101905061051b565b50505050905090810190601f1680156105635780820380516001836020036101000a031916815260200191505b509550505050505060405180910390f35b346002548111151561058557600080fd5b6003600081548092919060010191905055506060604051908101604052803373ffffffffffffffffffffffffffffffffffffffff16815260200184815260200183815250600080600354815260200190815260200160002060008201518160000160006101000a81548173ffffffffffffffffffffffffffffffffffffffff021916908373ffffffffffffffffffffffffffffffffffffffff1602179055506020820151816001019080519060200190610640929190610c00565b50604082015181600201908051906020019061065d929190610c00565b5090505034600281905550505050565b60006020528060005260406000206000915090508060000160009054906101000a900473ffffffffffffffffffffffffffffffffffffffff1690806001018054600181600116156101000203166002900480601f01602080910402602001604051908101604052809291908181526020018280546001816001161561010002031660029004801561073f5780601f106107145761010080835404028352916020019161073f565b820191906000526020600020905b81548152906001019060200180831161072257829003601f168201915b505050505090806002018054600181600116156101000203166002900480601f0160208091040260200160405190810160405280929190818152602001828054600181600116156101000203166002900480156107dd5780601f106107b2576101008083540402835291602001916107dd565b820191906000526020600020905b8154815290600101906020018083116107c057829003601f168201915b5050505050905083565b6000600160009054906101000a900473ffffffffffffffffffffffffffffffffffffffff1673ffffffffffffffffffffffffffffffffffffffff163373ffffffffffffffffffffffffffffffffffffffff1614151561084557600080fd5b3073ffffffffffffffffffffffffffffffffffffffff1631905090565b600160009054906101000a900473ffffffffffffffffffffffffffffffffffffffff1673ffffffffffffffffffffffffffffffffffffffff163373ffffffffffffffffffffffffffffffffffffffff161415156108be57600080fd5b3073ffffffffffffffffffffffffffffffffffffffff16318110151561094c576040517f08c379a00000000000000000000000000000000000000000000000000000000081526004018080602001828103825260188152602001807f4e6f7420616d6f756e7420696e746f20636f6e7472616374000000000000000081525060200191505060405180910390fd5b600160009054906101000a900473ffffffffffffffffffffffffffffffffffffffff1673ffffffffffffffffffffffffffffffffffffffff166108fc829081150290604051600060405180830381858888f193505050501580156109b4573d6000803e3d6000fd5b5050565b6000600160009054906101000a900473ffffffffffffffffffffffffffffffffffffffff1673ffffffffffffffffffffffffffffffffffffffff163373ffffffffffffffffffffffffffffffffffffffff16141515610a1657600080fd5b600354905090565b6000600160009054906101000a900473ffffffffffffffffffffffffffffffffffffffff16905090565b6000600254905090565b6000606080600080600354815260200190815260200160002060000160009054906101000a900473ffffffffffffffffffffffffffffffffffffffff1660008060035481526020019081526020016000206001016000806003548152602001908152602001600020600201818054600181600116156101000203166002900480601f016020809104026020016040519081016040528092919081815260200182805460018160011615610100020316600290048015610b525780601f10610b2757610100808354040283529160200191610b52565b820191906000526020600020905b815481529060010190602001808311610b3557829003601f168201915b50505050509150808054600181600116156101000203166002900480601f016020809104026020016040519081016040528092919081815260200182805460018160011615610100020316600290048015610bee5780601f10610bc357610100808354040283529160200191610bee565b820191906000526020600020905b815481529060010190602001808311610bd157829003601f168201915b50505050509050925092509250909192565b828054600181600116156101000203166002900490600052602060002090601f016020900481019282601f10610c4157805160ff1916838001178555610c6f565b82800160010185558215610c6f579182015b82811115610c6e578251825591602001919060010190610c53565b5b509050610c7c9190610c80565b5090565b610ca291905b80821115610c9e576000816000905550600101610c86565b5090565b9056fea165627a7a72305820065a86b91fb3f7c302bfb5cb4c946b616d909065792644e9880472ee1757fb630029",
  "source": "// SPDX-License-Identifier: MIT\r\npragma solidity >=0.4.0 <=0.8.0;\r\n\r\ncontract Advertisement{\r\n    \r\n    struct Ad{\r\n        address adOwner;\r\n        string link;\r\n        string linkName;\r\n    }\r\n    \r\n    mapping(uint => Ad) public ads;\r\n    \r\n    address payable owner;\r\n    uint adCost = 0 ether;\r\n    uint adCount = 1;\r\n    \r\n    modifier allowToChange (uint value) {\r\n        require (value > adCost);\r\n        _;\r\n    }\r\n    \r\n    modifier onlyOwner {\r\n        require(msg.sender == owner);\r\n        _;\r\n    }\r\n    \r\n    constructor(string memory _link, string memory _linkName) public {\r\n        owner = msg.sender;\r\n        ads[adCount] = Ad(msg.sender, _link, _linkName);\r\n    }\r\n    \r\n    function changeAd(string memory _link, string memory _linkName) public payable allowToChange(msg.value) {\r\n        adCount ++;\r\n        ads[adCount] = Ad(msg.sender, _link, _linkName);\r\n        adCost = msg.value;\r\n    }\r\n    \r\n    function getOwner() public view returns (address){\r\n        return owner;\r\n    }\r\n\r\n    function getCost() public view returns (uint) {\r\n        return adCost;\r\n    }\r\n    \r\n    function getAd() public view returns(address, string memory, string memory){\r\n        return (ads[adCount].adOwner, ads[adCount].link, ads[adCount].linkName);\r\n    }\r\n    \r\n    function getBalanceOfContract() public view onlyOwner returns(uint){\r\n        return address(this).balance;\r\n    }\r\n    \r\n    function getAdCount() public view onlyOwner returns (uint){\r\n        return adCount;\r\n    }\r\n    \r\n    function withdraw(uint amount) public onlyOwner {\r\n        require(amount < address(this).balance, \"Not amount into contract\");\r\n        owner.transfer(amount);\r\n    }\r\n}",
  "sourcePath": "C:/Users/georg/Desktop/Code/BlockChain/advertisment-auction/contracts/Advertisement.sol",
  "compiler": {
    "name": "solc",
    "version": "0.5.1+commit.c8a2cb62.Emscripten.clang"
  },
  "schemaVersion": "3.3.2",
  "updatedAt": "2020-12-04T13:39:42.165Z",
  "networkType": "ethereum",
  "devdoc": {
    "methods": {}
  },
  "userdoc": {
    "methods": {}
  }
}