{
  "contractName": "Advertisement",
  "abi": [
    {
      "constant": true,
      "inputs": [
        {
          "name": "",
          "type": "uint256"
        }
      ],
      "name": "ads",
      "outputs": [
        {
          "name": "adOwner",
          "type": "address"
        },
        {
          "name": "link",
          "type": "string"
        },
        {
          "name": "linkName",
          "type": "string"
        },
        {
          "name": "imgHash",
          "type": "string"
        }
      ],
      "payable": false,
      "stateMutability": "view",
      "type": "function"
    },
    {
      "inputs": [
        {
          "name": "_link",
          "type": "string"
        },
        {
          "name": "_linkName",
          "type": "string"
        },
        {
          "name": "_imgHash",
          "type": "string"
        }
      ],
      "payable": false,
      "stateMutability": "nonpayable",
      "type": "constructor"
    },
    {
      "constant": false,
      "inputs": [
        {
          "name": "_link",
          "type": "string"
        },
        {
          "name": "_linkName",
          "type": "string"
        },
        {
          "name": "_imgHash",
          "type": "string"
        }
      ],
      "name": "changeAd",
      "outputs": [],
      "payable": true,
      "stateMutability": "payable",
      "type": "function"
    },
    {
      "constant": true,
      "inputs": [],
      "name": "getOwner",
      "outputs": [
        {
          "name": "",
          "type": "address"
        }
      ],
      "payable": false,
      "stateMutability": "view",
      "type": "function"
    },
    {
      "constant": true,
      "inputs": [],
      "name": "getCost",
      "outputs": [
        {
          "name": "",
          "type": "uint256"
        }
      ],
      "payable": false,
      "stateMutability": "view",
      "type": "function"
    },
    {
      "constant": true,
      "inputs": [],
      "name": "getAd",
      "outputs": [
        {
          "name": "",
          "type": "address"
        },
        {
          "name": "",
          "type": "string"
        },
        {
          "name": "",
          "type": "string"
        },
        {
          "name": "",
          "type": "string"
        }
      ],
      "payable": false,
      "stateMutability": "view",
      "type": "function"
    },
    {
      "constant": true,
      "inputs": [],
      "name": "getBalanceOfContract",
      "outputs": [
        {
          "name": "",
          "type": "uint256"
        }
      ],
      "payable": false,
      "stateMutability": "view",
      "type": "function"
    },
    {
      "constant": true,
      "inputs": [],
      "name": "getAdCount",
      "outputs": [
        {
          "name": "",
          "type": "uint256"
        }
      ],
      "payable": false,
      "stateMutability": "view",
      "type": "function"
    },
    {
      "constant": false,
      "inputs": [
        {
          "name": "amount",
          "type": "uint256"
        }
      ],
      "name": "withdraw",
      "outputs": [],
      "payable": false,
      "stateMutability": "nonpayable",
      "type": "function"
    }
  ],
  "bytecode": "0x6080604052600060025560016003553480156200001b57600080fd5b50604051620012f1380380620012f1833981018060405260608110156200004157600080fd5b8101908080516401000000008111156200005a57600080fd5b828101905060208101848111156200007157600080fd5b81518560018202830111640100000000821117156200008f57600080fd5b50509291906020018051640100000000811115620000ac57600080fd5b82810190506020810184811115620000c357600080fd5b8151856001820283011164010000000082111715620000e157600080fd5b50509291906020018051640100000000811115620000fe57600080fd5b828101905060208101848111156200011557600080fd5b81518560018202830111640100000000821117156200013357600080fd5b505092919050505033600160006101000a81548173ffffffffffffffffffffffffffffffffffffffff021916908373ffffffffffffffffffffffffffffffffffffffff1602179055506080604051908101604052803373ffffffffffffffffffffffffffffffffffffffff16815260200184815260200183815260200182815250600080600354815260200190815260200160002060008201518160000160006101000a81548173ffffffffffffffffffffffffffffffffffffffff021916908373ffffffffffffffffffffffffffffffffffffffff16021790555060208201518160010190805190602001906200022d92919062000278565b5060408201518160020190805190602001906200024c92919062000278565b5060608201518160030190805190602001906200026b92919062000278565b5090505050505062000327565b828054600181600116156101000203166002900490600052602060002090601f016020900481019282601f10620002bb57805160ff1916838001178555620002ec565b82800160010185558215620002ec579182015b82811115620002eb578251825591602001919060010190620002ce565b5b509050620002fb9190620002ff565b5090565b6200032491905b808211156200032057600081600090555060010162000306565b5090565b90565b610fba80620003376000396000f3fe608060405260043610610088576000357c01000000000000000000000000000000000000000000000000000000009004806311a7a4c01461008d578063229688851461024c5780632e1a7d4d14610277578063800a7e45146102b2578063893d20e8146102dd5780639cdcfc1014610334578063bd3e19d41461051d578063da4700ed14610548575b600080fd5b34801561009957600080fd5b506100c6600480360360208110156100b057600080fd5b81019080803590602001909291905050506106e3565b604051808573ffffffffffffffffffffffffffffffffffffffff1673ffffffffffffffffffffffffffffffffffffffff168152602001806020018060200180602001848103845287818151815260200191508051906020019080838360005b83811015610140578082015181840152602081019050610125565b50505050905090810190601f16801561016d5780820380516001836020036101000a031916815260200191505b50848103835286818151815260200191508051906020019080838360005b838110156101a657808201518184015260208101905061018b565b50505050905090810190601f1680156101d35780820380516001836020036101000a031916815260200191505b50848103825285818151815260200191508051906020019080838360005b8381101561020c5780820151818401526020810190506101f1565b50505050905090810190601f1680156102395780820380516001836020036101000a031916815260200191505b5097505050505050505060405180910390f35b34801561025857600080fd5b506102616108fb565b6040518082815260200191505060405180910390f35b34801561028357600080fd5b506102b06004803603602081101561029a57600080fd5b8101908080359060200190929190505050610976565b005b3480156102be57600080fd5b506102c7610acc565b6040518082815260200191505060405180910390f35b3480156102e957600080fd5b506102f2610b32565b604051808273ffffffffffffffffffffffffffffffffffffffff1673ffffffffffffffffffffffffffffffffffffffff16815260200191505060405180910390f35b61051b6004803603606081101561034a57600080fd5b810190808035906020019064010000000081111561036757600080fd5b82018360208201111561037957600080fd5b8035906020019184600183028401116401000000008311171561039b57600080fd5b91908080601f016020809104026020016040519081016040528093929190818152602001838380828437600081840152601f19601f820116905080830192505050505050509192919290803590602001906401000000008111156103fe57600080fd5b82018360208201111561041057600080fd5b8035906020019184600183028401116401000000008311171561043257600080fd5b91908080601f016020809104026020016040519081016040528093929190818152602001838380828437600081840152601f19601f8201169050808301925050505050505091929192908035906020019064010000000081111561049557600080fd5b8201836020820111156104a757600080fd5b803590602001918460018302840111640100000000831117156104c957600080fd5b91908080601f016020809104026020016040519081016040528093929190818152602001838380828437600081840152601f19601f820116905080830192505050505050509192919290505050610b5c565b005b34801561052957600080fd5b50610532610c79565b6040518082815260200191505060405180910390f35b34801561055457600080fd5b5061055d610c83565b604051808573ffffffffffffffffffffffffffffffffffffffff1673ffffffffffffffffffffffffffffffffffffffff168152602001806020018060200180602001848103845287818151815260200191508051906020019080838360005b838110156105d75780820151818401526020810190506105bc565b50505050905090810190601f1680156106045780820380516001836020036101000a031916815260200191505b50848103835286818151815260200191508051906020019080838360005b8381101561063d578082015181840152602081019050610622565b50505050905090810190601f16801561066a5780820380516001836020036101000a031916815260200191505b50848103825285818151815260200191508051906020019080838360005b838110156106a3578082015181840152602081019050610688565b50505050905090810190601f1680156106d05780820380516001836020036101000a031916815260200191505b5097505050505050505060405180910390f35b60006020528060005260406000206000915090508060000160009054906101000a900473ffffffffffffffffffffffffffffffffffffffff1690806001018054600181600116156101000203166002900480601f0160208091040260200160405190810160405280929190818152602001828054600181600116156101000203166002900480156107b55780601f1061078a576101008083540402835291602001916107b5565b820191906000526020600020905b81548152906001019060200180831161079857829003601f168201915b505050505090806002018054600181600116156101000203166002900480601f0160208091040260200160405190810160405280929190818152602001828054600181600116156101000203166002900480156108535780601f1061082857610100808354040283529160200191610853565b820191906000526020600020905b81548152906001019060200180831161083657829003601f168201915b505050505090806003018054600181600116156101000203166002900480601f0160208091040260200160405190810160405280929190818152602001828054600181600116156101000203166002900480156108f15780601f106108c6576101008083540402835291602001916108f1565b820191906000526020600020905b8154815290600101906020018083116108d457829003601f168201915b5050505050905084565b6000600160009054906101000a900473ffffffffffffffffffffffffffffffffffffffff1673ffffffffffffffffffffffffffffffffffffffff163373ffffffffffffffffffffffffffffffffffffffff1614151561095957600080fd5b3073ffffffffffffffffffffffffffffffffffffffff1631905090565b600160009054906101000a900473ffffffffffffffffffffffffffffffffffffffff1673ffffffffffffffffffffffffffffffffffffffff163373ffffffffffffffffffffffffffffffffffffffff161415156109d257600080fd5b3073ffffffffffffffffffffffffffffffffffffffff163181101515610a60576040517f08c379a00000000000000000000000000000000000000000000000000000000081526004018080602001828103825260188152602001807f4e6f7420616d6f756e7420696e746f20636f6e7472616374000000000000000081525060200191505060405180910390fd5b600160009054906101000a900473ffffffffffffffffffffffffffffffffffffffff1673ffffffffffffffffffffffffffffffffffffffff166108fc829081150290604051600060405180830381858888f19350505050158015610ac8573d6000803e3d6000fd5b5050565b6000600160009054906101000a900473ffffffffffffffffffffffffffffffffffffffff1673ffffffffffffffffffffffffffffffffffffffff163373ffffffffffffffffffffffffffffffffffffffff16141515610b2a57600080fd5b600354905090565b6000600160009054906101000a900473ffffffffffffffffffffffffffffffffffffffff16905090565b3460025481111515610b6d57600080fd5b6003600081548092919060010191905055506080604051908101604052803373ffffffffffffffffffffffffffffffffffffffff16815260200185815260200184815260200183815250600080600354815260200190815260200160002060008201518160000160006101000a81548173ffffffffffffffffffffffffffffffffffffffff021916908373ffffffffffffffffffffffffffffffffffffffff1602179055506020820151816001019080519060200190610c2e929190610ee9565b506040820151816002019080519060200190610c4b929190610ee9565b506060820151816003019080519060200190610c68929190610ee9565b509050503460028190555050505050565b6000600254905090565b60006060806060600080600354815260200190815260200160002060000160009054906101000a900473ffffffffffffffffffffffffffffffffffffffff16600080600354815260200190815260200160002060010160008060035481526020019081526020016000206002016000806003548152602001908152602001600020600301828054600181600116156101000203166002900480601f016020809104026020016040519081016040528092919081815260200182805460018160011615610100020316600290048015610d9c5780601f10610d7157610100808354040283529160200191610d9c565b820191906000526020600020905b815481529060010190602001808311610d7f57829003601f168201915b50505050509250818054600181600116156101000203166002900480601f016020809104026020016040519081016040528092919081815260200182805460018160011615610100020316600290048015610e385780601f10610e0d57610100808354040283529160200191610e38565b820191906000526020600020905b815481529060010190602001808311610e1b57829003601f168201915b50505050509150808054600181600116156101000203166002900480601f016020809104026020016040519081016040528092919081815260200182805460018160011615610100020316600290048015610ed45780601f10610ea957610100808354040283529160200191610ed4565b820191906000526020600020905b815481529060010190602001808311610eb757829003601f168201915b50505050509050935093509350935090919293565b828054600181600116156101000203166002900490600052602060002090601f016020900481019282601f10610f2a57805160ff1916838001178555610f58565b82800160010185558215610f58579182015b82811115610f57578251825591602001919060010190610f3c565b5b509050610f659190610f69565b5090565b610f8b91905b80821115610f87576000816000905550600101610f6f565b5090565b9056fea165627a7a72305820a6fc445d69954b850dd7109b4379196e8b4a4cfdbc9ea3523d2b8936c57a38030029",
  "source": "// SPDX-License-Identifier: MIT\r\npragma solidity >=0.4.0 <=0.8.0;\r\n\r\ncontract Advertisement{\r\n    \r\n    struct Ad{\r\n        address adOwner;\r\n        string link;\r\n        string linkName;\r\n        string imgHash;\r\n    }\r\n    \r\n    mapping(uint => Ad) public ads;\r\n    \r\n    address payable owner;\r\n    uint adCost = 0 ether;\r\n    uint adCount = 1;\r\n    \r\n    modifier allowToChange (uint value) {\r\n        require (value > adCost);\r\n        _;\r\n    }\r\n    \r\n    modifier onlyOwner {\r\n        require(msg.sender == owner);\r\n        _;\r\n    }\r\n    \r\n    constructor(string memory _link, string memory _linkName, string memory _imgHash) public {\r\n        owner = msg.sender;\r\n        ads[adCount] = Ad(msg.sender, _link, _linkName, _imgHash);\r\n    }\r\n    \r\n    function changeAd(string memory _link, string memory _linkName, string memory _imgHash) public payable allowToChange(msg.value) {\r\n        adCount ++;\r\n        ads[adCount] = Ad(msg.sender, _link, _linkName, _imgHash);\r\n        adCost = msg.value;\r\n    }\r\n    \r\n    function getOwner() public view returns (address){\r\n        return owner;\r\n    }\r\n\r\n    function getCost() public view returns (uint) {\r\n        return adCost;\r\n    }\r\n    \r\n    function getAd() public view returns(address, string memory, string memory, string memory){\r\n        return (ads[adCount].adOwner, ads[adCount].link, ads[adCount].linkName, ads[adCount].imgHash);\r\n    }\r\n    \r\n    function getBalanceOfContract() public view onlyOwner returns(uint){\r\n        return address(this).balance;\r\n    }\r\n    \r\n    function getAdCount() public view onlyOwner returns (uint){\r\n        return adCount;\r\n    }\r\n    \r\n    function withdraw(uint amount) public onlyOwner {\r\n        require(amount < address(this).balance, \"Not amount into contract\");\r\n        owner.transfer(amount);\r\n    }\r\n}",
  "sourcePath": "C:/Users/georg/Desktop/Code/BlockChain/advertisment-auction/contracts/Advertisement.sol",
  "compiler": {
    "name": "solc",
    "version": "0.5.1+commit.c8a2cb62.Emscripten.clang"
  },
  "schemaVersion": "3.3.2",
  "updatedAt": "2020-12-05T07:37:46.825Z",
  "networkType": "ethereum",
  "devdoc": {
    "methods": {}
  },
  "userdoc": {
    "methods": {}
  }
}